{
  "contractName": "EbikeTokenCrowdsale",
  "abi": [
    {
      "constant": true,
      "inputs": [],
      "name": "hasClosed",
      "outputs": [
        {
          "name": "",
          "type": "bool"
        }
      ],
      "payable": false,
      "stateMutability": "view",
      "type": "function"
    },
    {
      "constant": true,
      "inputs": [],
      "name": "totalTokensForPrivateSale",
      "outputs": [
        {
          "name": "",
          "type": "uint256"
        }
      ],
      "payable": false,
      "stateMutability": "view",
      "type": "function"
    },
    {
      "constant": true,
      "inputs": [],
      "name": "totalTokensForTeam",
      "outputs": [
        {
          "name": "",
          "type": "uint256"
        }
      ],
      "payable": false,
      "stateMutability": "view",
      "type": "function"
    },
    {
      "constant": true,
      "inputs": [],
      "name": "bonusCoff",
      "outputs": [
        {
          "name": "",
          "type": "uint256"
        }
      ],
      "payable": false,
      "stateMutability": "view",
      "type": "function"
    },
    {
      "constant": true,
      "inputs": [],
      "name": "totalTokenLimit",
      "outputs": [
        {
          "name": "",
          "type": "uint256"
        }
      ],
      "payable": false,
      "stateMutability": "view",
      "type": "function"
    },
    {
      "constant": true,
      "inputs": [],
      "name": "rate",
      "outputs": [
        {
          "name": "",
          "type": "uint256"
        }
      ],
      "payable": false,
      "stateMutability": "view",
      "type": "function"
    },
    {
      "constant": true,
      "inputs": [],
      "name": "totalTokensForDevelopers",
      "outputs": [
        {
          "name": "",
          "type": "uint256"
        }
      ],
      "payable": false,
      "stateMutability": "view",
      "type": "function"
    },
    {
      "constant": true,
      "inputs": [],
      "name": "weiRaised",
      "outputs": [
        {
          "name": "",
          "type": "uint256"
        }
      ],
      "payable": false,
      "stateMutability": "view",
      "type": "function"
    },
    {
      "constant": true,
      "inputs": [],
      "name": "closingTime",
      "outputs": [
        {
          "name": "",
          "type": "uint256"
        }
      ],
      "payable": false,
      "stateMutability": "view",
      "type": "function"
    },
    {
      "constant": true,
      "inputs": [],
      "name": "wallet",
      "outputs": [
        {
          "name": "",
          "type": "address"
        }
      ],
      "payable": false,
      "stateMutability": "view",
      "type": "function"
    },
    {
      "constant": true,
      "inputs": [],
      "name": "owner",
      "outputs": [
        {
          "name": "",
          "type": "address"
        }
      ],
      "payable": false,
      "stateMutability": "view",
      "type": "function"
    },
    {
      "constant": true,
      "inputs": [],
      "name": "totalTokensMintedICO",
      "outputs": [
        {
          "name": "",
          "type": "uint256"
        }
      ],
      "payable": false,
      "stateMutability": "view",
      "type": "function"
    },
    {
      "constant": true,
      "inputs": [],
      "name": "totalTokensForPreSale",
      "outputs": [
        {
          "name": "",
          "type": "uint256"
        }
      ],
      "payable": false,
      "stateMutability": "view",
      "type": "function"
    },
    {
      "constant": true,
      "inputs": [],
      "name": "openingTime",
      "outputs": [
        {
          "name": "",
          "type": "uint256"
        }
      ],
      "payable": false,
      "stateMutability": "view",
      "type": "function"
    },
    {
      "constant": true,
      "inputs": [],
      "name": "publicMaxTokens",
      "outputs": [
        {
          "name": "",
          "type": "uint256"
        }
      ],
      "payable": false,
      "stateMutability": "view",
      "type": "function"
    },
    {
      "constant": true,
      "inputs": [],
      "name": "stage",
      "outputs": [
        {
          "name": "",
          "type": "uint8"
        }
      ],
      "payable": false,
      "stateMutability": "view",
      "type": "function"
    },
    {
      "constant": true,
      "inputs": [],
      "name": "totalWeiRaisedDuringPreSale",
      "outputs": [
        {
          "name": "",
          "type": "uint256"
        }
      ],
      "payable": false,
      "stateMutability": "view",
      "type": "function"
    },
    {
      "constant": true,
      "inputs": [],
      "name": "totalTokensMintedPreSale",
      "outputs": [
        {
          "name": "",
          "type": "uint256"
        }
      ],
      "payable": false,
      "stateMutability": "view",
      "type": "function"
    },
    {
      "constant": true,
      "inputs": [],
      "name": "totalWeiRaisedDuringICO",
      "outputs": [
        {
          "name": "",
          "type": "uint256"
        }
      ],
      "payable": false,
      "stateMutability": "view",
      "type": "function"
    },
    {
      "constant": false,
      "inputs": [
        {
          "name": "_beneficiary",
          "type": "address"
        }
      ],
      "name": "buyTokens",
      "outputs": [],
      "payable": true,
      "stateMutability": "payable",
      "type": "function"
    },
    {
      "constant": false,
      "inputs": [
        {
          "name": "newOwner",
          "type": "address"
        }
      ],
      "name": "transferOwnership",
      "outputs": [],
      "payable": false,
      "stateMutability": "nonpayable",
      "type": "function"
    },
    {
      "constant": true,
      "inputs": [],
      "name": "totalTokensForBounty",
      "outputs": [
        {
          "name": "",
          "type": "uint256"
        }
      ],
      "payable": false,
      "stateMutability": "view",
      "type": "function"
    },
    {
      "constant": true,
      "inputs": [],
      "name": "token",
      "outputs": [
        {
          "name": "",
          "type": "address"
        }
      ],
      "payable": false,
      "stateMutability": "view",
      "type": "function"
    },
    {
      "inputs": [
        {
          "name": "_openingTime",
          "type": "uint256"
        },
        {
          "name": "_closingTime",
          "type": "uint256"
        },
        {
          "name": "_rate",
          "type": "uint256"
        },
        {
          "name": "_wallet",
          "type": "address"
        },
        {
          "name": "_token",
          "type": "address"
        }
      ],
      "payable": false,
      "stateMutability": "nonpayable",
      "type": "constructor"
    },
    {
      "payable": true,
      "stateMutability": "payable",
      "type": "fallback"
    },
    {
      "anonymous": false,
      "inputs": [
        {
          "indexed": true,
          "name": "previousOwner",
          "type": "address"
        },
        {
          "indexed": true,
          "name": "newOwner",
          "type": "address"
        }
      ],
      "name": "OwnershipTransferred",
      "type": "event"
    },
    {
      "anonymous": false,
      "inputs": [
        {
          "indexed": true,
          "name": "purchaser",
          "type": "address"
        },
        {
          "indexed": true,
          "name": "beneficiary",
          "type": "address"
        },
        {
          "indexed": false,
          "name": "value",
          "type": "uint256"
        },
        {
          "indexed": false,
          "name": "amount",
          "type": "uint256"
        }
      ],
      "name": "TokenPurchase",
      "type": "event"
    },
    {
      "constant": false,
      "inputs": [],
      "name": "startSaleNow",
      "outputs": [],
      "payable": false,
      "stateMutability": "nonpayable",
      "type": "function"
    },
    {
      "constant": false,
      "inputs": [
        {
          "name": "_openingTime",
          "type": "uint256"
        }
      ],
      "name": "setOpeningTime",
      "outputs": [],
      "payable": false,
      "stateMutability": "nonpayable",
      "type": "function"
    },
    {
      "constant": false,
      "inputs": [
        {
          "name": "_maxTokens",
          "type": "uint256"
        }
      ],
      "name": "setMaxTokenForPublic",
      "outputs": [],
      "payable": false,
      "stateMutability": "nonpayable",
      "type": "function"
    },
    {
      "constant": false,
      "inputs": [
        {
          "name": "value",
          "type": "uint256"
        }
      ],
      "name": "setCrowdsaleStage",
      "outputs": [],
      "payable": false,
      "stateMutability": "nonpayable",
      "type": "function"
    },
    {
      "constant": false,
      "inputs": [],
      "name": "FinishPreSale",
      "outputs": [],
      "payable": false,
      "stateMutability": "nonpayable",
      "type": "function"
    },
    {
      "constant": false,
      "inputs": [
        {
          "name": "developerWallet",
          "type": "address"
        },
        {
          "name": "teamWallet",
          "type": "address"
        },
        {
          "name": "bountyWallet",
          "type": "address"
        },
        {
          "name": "privateSaleWallet",
          "type": "address"
        }
      ],
      "name": "finish",
      "outputs": [],
      "payable": false,
      "stateMutability": "nonpayable",
      "type": "function"
    }
  ],
  "bytecode": "0x60806040526000600660146101000a81548160ff0219169083600181111561002357fe5b02179055506000600860006101000a81548160ff021916908315150217905550601260ff16600a0a63067f354002600955601260ff16600a0a630393870002600a55601260ff16600a0a6298968002600b55601260ff16600a0a623d090002600c55601260ff16600a0a6301312d0002600d55601260ff16600a0a6298968002600e55601260ff16600a0a624c4b4002600f55600060105560006011553480156100cc57600080fd5b5060405160a08061186c8339810180604052810190808051906020019092919080519060200190929190805190602001909291908051906020019092919080519060200190929190505050848484848460008311151561012b57600080fd5b600073ffffffffffffffffffffffffffffffffffffffff168273ffffffffffffffffffffffffffffffffffffffff161415151561016757600080fd5b600073ffffffffffffffffffffffffffffffffffffffff168173ffffffffffffffffffffffffffffffffffffffff16141515156101a357600080fd5b8260028190555081600160006101000a81548173ffffffffffffffffffffffffffffffffffffffff021916908373ffffffffffffffffffffffffffffffffffffffff160217905550806000806101000a81548173ffffffffffffffffffffffffffffffffffffffff021916908373ffffffffffffffffffffffffffffffffffffffff16021790555050505042821015151561023d57600080fd5b81811015151561024c57600080fd5b8160048190555080600581905550505033600660006101000a81548173ffffffffffffffffffffffffffffffffffffffff021916908373ffffffffffffffffffffffffffffffffffffffff1602179055506101f4600760008060018111156102b057fe5b8152602001908152602001600020819055506000600760006001808111156102d457fe5b8152602001908152602001600020819055505050505050611572806102fa6000396000f300608060405260043610610175576000357c0100000000000000000000000000000000000000000000000000000000900463ffffffff1680630fda5a9c146101805780631515bc2b1461019757806315e30431146101c657806325ebfdfc146101f157806329a9aa631461021c5780632b387170146102475780632c4e722e146102725780632e4bd3db1461029d5780634042b66f146102c85780634b6753bc146102f3578063521eb2731461031e578063767d96e5146103755780638da5cb5b1461038c578063a252381c146103e3578063a997f82f1461040e578063abdd11a81461043b578063ae0129a914610468578063b5fdcbeb14610493578063b7a8807c146104c0578063bf4098bb146104eb578063c040e6b814610516578063d06876431461054f578063d1f670e11461057a578063d7db2351146105a5578063e76b8126146105d0578063ec8ac4d814610673578063f2fde38b146106a9578063f7253ef4146106ec578063fc0c546a14610717575b61017e3361076e565b005b34801561018c57600080fd5b5061019561083c565b005b3480156101a357600080fd5b506101ac6108a1565b604051808215151515815260200191505060405180910390f35b3480156101d257600080fd5b506101db6108ad565b6040518082815260200191505060405180910390f35b3480156101fd57600080fd5b506102066108b3565b6040518082815260200191505060405180910390f35b34801561022857600080fd5b506102316108b9565b6040518082815260200191505060405180910390f35b34801561025357600080fd5b5061025c6108bf565b6040518082815260200191505060405180910390f35b34801561027e57600080fd5b506102876108c5565b6040518082815260200191505060405180910390f35b3480156102a957600080fd5b506102b26108cb565b6040518082815260200191505060405180910390f35b3480156102d457600080fd5b506102dd6108d1565b6040518082815260200191505060405180910390f35b3480156102ff57600080fd5b506103086108d7565b6040518082815260200191505060405180910390f35b34801561032a57600080fd5b506103336108dd565b604051808273ffffffffffffffffffffffffffffffffffffffff1673ffffffffffffffffffffffffffffffffffffffff16815260200191505060405180910390f35b34801561038157600080fd5b5061038a610903565b005b34801561039857600080fd5b506103a16109d9565b604051808273ffffffffffffffffffffffffffffffffffffffff1673ffffffffffffffffffffffffffffffffffffffff16815260200191505060405180910390f35b3480156103ef57600080fd5b506103f86109ff565b6040518082815260200191505060405180910390f35b34801561041a57600080fd5b5061043960048036038101908080359060200190929190505050610a05565b005b34801561044757600080fd5b5061046660048036038101908080359060200190929190505050610ac0565b005b34801561047457600080fd5b5061047d610b36565b6040518082815260200191505060405180910390f35b34801561049f57600080fd5b506104be60048036038101908080359060200190929190505050610b3c565b005b3480156104cc57600080fd5b506104d5610bd7565b6040518082815260200191505060405180910390f35b3480156104f757600080fd5b50610500610bdd565b6040518082815260200191505060405180910390f35b34801561052257600080fd5b5061052b610be3565b6040518082600181111561053b57fe5b60ff16815260200191505060405180910390f35b34801561055b57600080fd5b50610564610bf6565b6040518082815260200191505060405180910390f35b34801561058657600080fd5b5061058f610bfc565b6040518082815260200191505060405180910390f35b3480156105b157600080fd5b506105ba610c02565b6040518082815260200191505060405180910390f35b3480156105dc57600080fd5b50610671600480360381019080803573ffffffffffffffffffffffffffffffffffffffff169060200190929190803573ffffffffffffffffffffffffffffffffffffffff169060200190929190803573ffffffffffffffffffffffffffffffffffffffff169060200190929190803573ffffffffffffffffffffffffffffffffffffffff169060200190929190505050610c08565b005b6106a7600480360381019080803573ffffffffffffffffffffffffffffffffffffffff16906020019092919050505061076e565b005b3480156106b557600080fd5b506106ea600480360381019080803573ffffffffffffffffffffffffffffffffffffffff169060200190929190505050610d70565b005b3480156106f857600080fd5b50610701610ec8565b6040518082815260200191505060405180910390f35b34801561072357600080fd5b5061072c610ece565b604051808273ffffffffffffffffffffffffffffffffffffffff1673ffffffffffffffffffffffffffffffffffffffff16815260200191505060405180910390f35b60008034915061077e8383610ef3565b61078782610ff0565b905061079e8260035461100f90919063ffffffff16565b6003819055506107ae838261102d565b8273ffffffffffffffffffffffffffffffffffffffff163373ffffffffffffffffffffffffffffffffffffffff167f623b3804fa71d67900d064613da8f94b9617215ee90799290593e1745087ad188484604051808381526020018281526020019250505060405180910390a3610825838361103b565b61082d611125565b6108378383611190565b505050565b600660009054906101000a900473ffffffffffffffffffffffffffffffffffffffff1673ffffffffffffffffffffffffffffffffffffffff163373ffffffffffffffffffffffffffffffffffffffff1614151561089857600080fd5b42600481905550565b60006005544211905090565b600c5481565b600e5481565b6103e881565b60095481565b60025481565b600d5481565b60035481565b60055481565b600160009054906101000a900473ffffffffffffffffffffffffffffffffffffffff1681565b6000600660009054906101000a900473ffffffffffffffffffffffffffffffffffffffff1673ffffffffffffffffffffffffffffffffffffffff163373ffffffffffffffffffffffffffffffffffffffff1614151561096157600080fd5b6000600181111561096e57fe5b600660149054906101000a900460ff16600181111561098957fe5b14151561099557600080fd5b601054600b5403905060008111156109cc576109bc81600a5461100f90919063ffffffff16565b600a81905550600b546010819055505b6109d66001610a05565b50565b600660009054906101000a900473ffffffffffffffffffffffffffffffffffffffff1681565b60115481565b6000600660009054906101000a900473ffffffffffffffffffffffffffffffffffffffff1673ffffffffffffffffffffffffffffffffffffffff163373ffffffffffffffffffffffffffffffffffffffff16141515610a6357600080fd5b8160006001811115610a7157fe5b1415610a805760009050610a99565b81600180811115610a8d57fe5b1415610a9857600190505b5b80600660146101000a81548160ff02191690836001811115610ab757fe5b02179055505050565b600660009054906101000a900473ffffffffffffffffffffffffffffffffffffffff1673ffffffffffffffffffffffffffffffffffffffff163373ffffffffffffffffffffffffffffffffffffffff16141515610b1c57600080fd5b60055481101515610b2c57600080fd5b8060048190555050565b600b5481565b6000600660009054906101000a900473ffffffffffffffffffffffffffffffffffffffff1673ffffffffffffffffffffffffffffffffffffffff163373ffffffffffffffffffffffffffffffffffffffff16141515610b9a57600080fd5b600a5482111515610baa57600080fd5b600a548203905081600a81905550610bcd8160095461100f90919063ffffffff16565b6009819055505050565b60045481565b600a5481565b600660149054906101000a900460ff1681565b60125481565b60105481565b60135481565b600660009054906101000a900473ffffffffffffffffffffffffffffffffffffffff1673ffffffffffffffffffffffffffffffffffffffff163373ffffffffffffffffffffffffffffffffffffffff16141515610c6457600080fd5b60011515600860009054906101000a900460ff16151514151515610c8757600080fd5b60008473ffffffffffffffffffffffffffffffffffffffff1614151515610cad57600080fd5b60008373ffffffffffffffffffffffffffffffffffffffff1614151515610cd357600080fd5b60008273ffffffffffffffffffffffffffffffffffffffff1614151515610cf957600080fd5b60008173ffffffffffffffffffffffffffffffffffffffff1614151515610d1f57600080fd5b6001600860006101000a81548160ff021916908315150217905550610d4684600d54611194565b610d5283600e54611194565b610d5e82600f54611194565b610d6a81600c54611194565b50505050565b600660009054906101000a900473ffffffffffffffffffffffffffffffffffffffff1673ffffffffffffffffffffffffffffffffffffffff163373ffffffffffffffffffffffffffffffffffffffff16141515610dcc57600080fd5b600073ffffffffffffffffffffffffffffffffffffffff168173ffffffffffffffffffffffffffffffffffffffff1614151515610e0857600080fd5b8073ffffffffffffffffffffffffffffffffffffffff16600660009054906101000a900473ffffffffffffffffffffffffffffffffffffffff1673ffffffffffffffffffffffffffffffffffffffff167f8be0079c531659141344cd1fd0a4f28419497f9722a3daafe3b4186f6b6457e060405160405180910390a380600660006101000a81548173ffffffffffffffffffffffffffffffffffffffff021916908373ffffffffffffffffffffffffffffffffffffffff16021790555050565b600f5481565b6000809054906101000a900473ffffffffffffffffffffffffffffffffffffffff1681565b600080600060011515600860009054906101000a900460ff16151514151515610f1b57600080fd5b6000806011549150600a54905060006001811115610f3557fe5b600660149054906101000a900460ff166001811115610f5057fe5b1415610f6157600b54905060105491505b8082101515610f6f57600080fd5b610f7886610ff0565b9450600a549350601154925060006001811115610f9157fe5b600660149054906101000a900460ff166001811115610fac57fe5b1415610fbd57600b54935060105492505b83610fd1868561100f90919063ffffffff16565b101515610fdd57600080fd5b610fe787876112cd565b50505050505050565b600080610ffc836112fa565b905061100781611318565b915050919050565b600080828401905083811015151561102357fe5b8091505092915050565b611037828261138e565b5050565b600061104682610ff0565b90506000600181111561105557fe5b600660149054906101000a900460ff16600181111561107057fe5b14156110b15761108b8160105461100f90919063ffffffff16565b6010819055506110a68260125461100f90919063ffffffff16565b601281905550611116565b6001808111156110bd57fe5b600660149054906101000a900460ff1660018111156110d857fe5b1415611115576110f38160115461100f90919063ffffffff16565b60118190555061110e8260135461100f90919063ffffffff16565b6013819055505b5b611120838361149c565b505050565b600160009054906101000a900473ffffffffffffffffffffffffffffffffffffffff1673ffffffffffffffffffffffffffffffffffffffff166108fc349081150290604051600060405180830381858888f1935050505015801561118d573d6000803e3d6000fd5b50565b5050565b60008273ffffffffffffffffffffffffffffffffffffffff16141515156111ba57600080fd5b6000811115156111c957600080fd5b6000809054906101000a900473ffffffffffffffffffffffffffffffffffffffff1673ffffffffffffffffffffffffffffffffffffffff166340c10f1983836040518363ffffffff167c0100000000000000000000000000000000000000000000000000000000028152600401808373ffffffffffffffffffffffffffffffffffffffff1673ffffffffffffffffffffffffffffffffffffffff16815260200182815260200192505050602060405180830381600087803b15801561128d57600080fd5b505af11580156112a1573d6000803e3d6000fd5b505050506040513d60208110156112b757600080fd5b8101908080519060200190929190505050505050565b60045442101580156112e157506005544211155b15156112ec57600080fd5b6112f682826114a0565b5050565b6000611311600254836114f090919063ffffffff16565b9050919050565b60008060076000600660149054906101000a900460ff16600181111561133a57fe5b81526020019081526020016000205490506113866103e8611378611369846103e861100f90919063ffffffff16565b866114f090919063ffffffff16565b61152b90919063ffffffff16565b915050919050565b6000809054906101000a900473ffffffffffffffffffffffffffffffffffffffff1673ffffffffffffffffffffffffffffffffffffffff166340c10f1983836040518363ffffffff167c0100000000000000000000000000000000000000000000000000000000028152600401808373ffffffffffffffffffffffffffffffffffffffff1673ffffffffffffffffffffffffffffffffffffffff16815260200182815260200192505050602060405180830381600087803b15801561145257600080fd5b505af1158015611466573d6000803e3d6000fd5b505050506040513d602081101561147c57600080fd5b8101908080519060200190929190505050151561149857600080fd5b5050565b5050565b600073ffffffffffffffffffffffffffffffffffffffff168273ffffffffffffffffffffffffffffffffffffffff16141515156114dc57600080fd5b600081141515156114ec57600080fd5b5050565b60008060008414156115055760009150611524565b828402905082848281151561151657fe5b0414151561152057fe5b8091505b5092915050565b600080828481151561153957fe5b04905080915050929150505600a165627a7a7230582040cd8bf7907c347fcca4d292592f15df03b81e73d51cdedb4340324c4aa1d6d60029",
  "source": "pragma solidity ^0.4.18;\n\nimport \"../node_modules/zeppelin-solidity/contracts/crowdsale/emission/MintedCrowdsale.sol\";\nimport \"../node_modules/zeppelin-solidity/contracts/token/ERC20/MintableToken.sol\";\nimport \"../node_modules/zeppelin-solidity/contracts/crowdsale/validation/TimedCrowdsale.sol\";\nimport \"../node_modules/zeppelin-solidity/contracts/ownership/Ownable.sol\";\n\ncontract EbikeTokenCrowdsale is TimedCrowdsale, MintedCrowdsale, Ownable {\n\n    // ICO stage\n    enum ICOStage { PreSale, ICO }\n    ICOStage public stage = ICOStage.PreSale;\n    mapping (uint => uint256) bonus;\n\n    bool isFinished = false;\n\n    // Token Distribution\n    uint8 constant decimals = 18;\n    uint256 public totalTokenLimit = 109000000 * (10 ** uint256(decimals)); //   109 milions EBK\n    uint256 public publicMaxTokens = 60000000 * (10 ** uint256(decimals)); //   60 milions EBK\n    uint256 public totalTokensForPreSale = 10000000 * (10 ** uint256(decimals)); // 10 million EBK\n    uint256 public totalTokensForPrivateSale = 4000000 * (10 ** uint256(decimals)); //  4 million EBK\n    uint256 public totalTokensForDevelopers = 20000000 * (10 ** uint256(decimals)); //  20 million EBK\n    uint256 public totalTokensForTeam = 10000000 * (10 ** uint256(decimals));   //  10 million EBK\n    uint256 public totalTokensForBounty = 5000000 * (10 ** uint256(decimals));  //  5 million EBK\n\n    uint256 public totalTokensMintedPreSale = 0;\n    uint256 public totalTokensMintedICO = 0;\n    \n    // Amount raised in PreSale and ICO\n    uint256 public totalWeiRaisedDuringPreSale;\n    uint256 public totalWeiRaisedDuringICO;\n\n    uint public constant bonusCoff = 1000; // Values should be 10x percents, value 1000 = 100%\n\n    function EbikeTokenCrowdsale (uint256 _openingTime, uint256 _closingTime, uint256 _rate, address _wallet, MintableToken _token) public \n        Crowdsale(_rate, _wallet, _token)\n        TimedCrowdsale(_openingTime, _closingTime) {\n\n            // Set Bonus for PreSale and ICO\n            bonus[uint(ICOStage.PreSale)] = 500;\n            bonus[uint(ICOStage.ICO)] = 0;\n    }\n\n    /**\n    * @dev Reverts if minted token is more then limit\n    */\n    modifier onlyWhenNotOnLimit {\n        uint256 _mintedTillNow = totalTokensMintedICO;\n        uint256 _totalTokens = publicMaxTokens;\n        if (stage == ICOStage.PreSale) {\n            _totalTokens =  totalTokensForPreSale;\n            _mintedTillNow = totalTokensMintedPreSale;\n        }\n        require(_mintedTillNow < _totalTokens);\n        _;\n    }\n\n    modifier notFinished {\n        require( isFinished != true);\n        _;\n    }\n\n    modifier onlyOnPreSale {\n        require(stage == ICOStage.PreSale);\n        _;\n    } \n\n    function startSaleNow() public onlyOwner {\n        openingTime = now;\n    }\n\n    // Change starting time of Crowdsale\n    function setOpeningTime(uint256 _openingTime) public onlyOwner {\n        require(_openingTime < closingTime);\n        openingTime = _openingTime;\n    }\n\n    // Update Circulating tokens\n    function setMaxTokenForPublic(uint256 _maxTokens) public onlyOwner {\n        require(_maxTokens > publicMaxTokens);\n        uint256 diff = _maxTokens - publicMaxTokens;\n        publicMaxTokens = _maxTokens;\n        totalTokenLimit = totalTokenLimit.add(diff);\n    }\n\n    // Change Crowdsale Stage. Available Options: PreSale, ICO\n    function setCrowdsaleStage(uint value) public onlyOwner {\n        \n        ICOStage _stage;\n\n        if (uint(ICOStage.PreSale) == value) {\n            _stage = ICOStage.PreSale;\n        } else if (uint(ICOStage.ICO) == value) {\n            _stage = ICOStage.ICO;\n        }\n\n        stage = _stage;\n    }\n\n    // Change the current rate\n    function setCurrentRate(uint256 _rate) private {\n        require(_rate != 0);\n        rate = _rate;\n    }\n\n    // Bonus for PreSale and ICO\n    function _amountWithBonus(uint256 amount) internal returns (uint256) {\n        uint256 _bonus = bonus[uint(stage)];\n        return amount.mul(bonusCoff.add(_bonus)).div(bonusCoff);\n    }\n\n    /**\n   * @dev Override the default one\n   */\n    function _getTokenAmount(uint256 _weiAmount) internal view returns (uint256) {\n        uint256 amount = super._getTokenAmount(_weiAmount);\n        // return amount with bonus\n        return _amountWithBonus(amount);\n    }\n\n    /**\n   * @dev Override the default one\n   */\n    function _updatePurchasingState(address _beneficiary, uint256 _weiAmount) internal {\n        // optional override\n        uint256 _tokenToBeMint = _getTokenAmount(_weiAmount);\n        if (stage == ICOStage.PreSale) {\n            totalTokensMintedPreSale = totalTokensMintedPreSale.add(_tokenToBeMint);\n            totalWeiRaisedDuringPreSale = totalWeiRaisedDuringPreSale.add(_weiAmount);\n        } else if (stage == ICOStage.ICO) {\n            totalTokensMintedICO = totalTokensMintedICO.add(_tokenToBeMint);\n            totalWeiRaisedDuringICO = totalWeiRaisedDuringICO.add(_weiAmount);\n        }\n        super._updatePurchasingState(_beneficiary, _weiAmount);\n    }\n\n    /**\n    * @dev Validation of an incoming purchase. \n    */\n    function _preValidatePurchase(address _beneficiary, uint256 _weiAmount) internal notFinished onlyWhenNotOnLimit  {\n        uint256 _tokenToBeMint = _getTokenAmount(_weiAmount);\n        uint256 _totalTokens = publicMaxTokens;\n        uint256 _mintedTillNow = totalTokensMintedICO;\n        if (stage == ICOStage.PreSale) {\n            _totalTokens =  totalTokensForPreSale;\n            _mintedTillNow = totalTokensMintedPreSale;\n        }\n        require(_mintedTillNow.add(_tokenToBeMint) < _totalTokens);\n        super._preValidatePurchase(_beneficiary, _weiAmount);\n    }\n\n    /**\n    * @dev Finish PreSale\n    */\n    function FinishPreSale() public onlyOwner onlyOnPreSale {\n        \n        uint256 unsoldTokens = totalTokensForPreSale - totalTokensMintedPreSale;\n        if (unsoldTokens > 0) {\n            // Mint unsold tokens and send it to wallet\n            // MintTokens(wallet, unsoldTokens);\n            publicMaxTokens = publicMaxTokens.add(unsoldTokens);\n            totalTokensMintedPreSale = totalTokensForPreSale;\n        }\n        // Set Sale Stage to ICO\n        setCrowdsaleStage(1);\n        return;\n    }\n\n    function MintTokens(address _beneficiary, uint256 _tokenAmount) internal {\n        require(_beneficiary != 0x0);\n        require(_tokenAmount > 0);\n        MintableToken(token).mint(_beneficiary, _tokenAmount);\n        return;\n    }\n\n\n    function finish(address developerWallet, address teamWallet, address bountyWallet, address privateSaleWallet) public onlyOwner notFinished {\n        require(developerWallet != 0x0);\n        require(teamWallet != 0x0);\n        require(bountyWallet != 0x0);\n        require(privateSaleWallet != 0x0);\n        \n        isFinished = true;\n        MintTokens(developerWallet, totalTokensForDevelopers);\n        MintTokens(teamWallet, totalTokensForTeam);\n        MintTokens(bountyWallet, totalTokensForBounty);\n        MintTokens(privateSaleWallet, totalTokensForPrivateSale);\n    }\n}",
  "sourcePath": "F:\\Projects\\ebike-token\\contracts\\EbikeTokenCrowdsale.sol",
  "compiler": {
    "name": "solc",
    "version": "0.4.23+commit.124ca40d.Emscripten.clang"
  },
  "schemaVersion": "2.0.0",
  "updatedAt": "2018-05-07T19:00:01.258Z"
}